{
  "_format": "hh-sol-artifact-1",
  "contractName": "ImageStorage",
  "sourceName": "contracts/ImageStorage.sol",
  "abi": [
    {
      "inputs": [],
      "name": "InvalidInput",
      "type": "error"
    },
    {
      "anonymous": false,
      "inputs": [
        {
          "indexed": true,
          "internalType": "uint256",
          "name": "imgID",
          "type": "uint256"
        },
        {
          "indexed": true,
          "internalType": "string",
          "name": "imgTitle",
          "type": "string"
        },
        {
          "indexed": false,
          "internalType": "string",
          "name": "imgHash",
          "type": "string"
        },
        {
          "indexed": true,
          "internalType": "address",
          "name": "imgAuthor",
          "type": "address"
        }
      ],
      "name": "ImageAdded",
      "type": "event"
    },
    {
      "inputs": [
        {
          "internalType": "string",
          "name": "_imgTitle",
          "type": "string"
        },
        {
          "internalType": "string",
          "name": "_imgHash",
          "type": "string"
        }
      ],
      "name": "addImage",
      "outputs": [],
      "stateMutability": "nonpayable",
      "type": "function"
    },
    {
      "inputs": [
        {
          "internalType": "uint256",
          "name": "",
          "type": "uint256"
        }
      ],
      "name": "images",
      "outputs": [
        {
          "internalType": "string",
          "name": "imgTitle",
          "type": "string"
        },
        {
          "internalType": "string",
          "name": "imgHash",
          "type": "string"
        },
        {
          "internalType": "address",
          "name": "imgAuthor",
          "type": "address"
        }
      ],
      "stateMutability": "view",
      "type": "function"
    },
    {
      "inputs": [],
      "name": "imgCounter",
      "outputs": [
        {
          "internalType": "uint256",
          "name": "",
          "type": "uint256"
        }
      ],
      "stateMutability": "view",
      "type": "function"
    }
  ],
  "bytecode": "0x60806040526000805534801561001457600080fd5b50610959806100246000396000f3fe608060405234801561001057600080fd5b50600436106100415760003560e01c80632f05ce2b146100465780638485648214610064578063a6eecd1814610096575b600080fd5b61004e6100b2565b60405161005b919061051e565b60405180910390f35b61007e6004803603810190610079919061056f565b6100b8565b60405161008d93929190610676565b60405180910390f35b6100b060048036038101906100ab9190610720565b610212565b005b60005481565b60016020528060005260406000206000915090508060000180546100db906107d0565b80601f0160208091040260200160405190810160405280929190818152602001828054610107906107d0565b80156101545780601f1061012957610100808354040283529160200191610154565b820191906000526020600020905b81548152906001019060200180831161013757829003601f168201915b505050505090806001018054610169906107d0565b80601f0160208091040260200160405190810160405280929190818152602001828054610195906107d0565b80156101e25780601f106101b7576101008083540402835291602001916101e2565b820191906000526020600020905b8154815290600101906020018083116101c557829003601f168201915b5050505050908060020160009054906101000a900473ffffffffffffffffffffffffffffffffffffffff16905083565b6000848490501415610250576040517fb4fa3fb300000000000000000000000000000000000000000000000000000000815260040160405180910390fd5b600082829050141561028e576040517fb4fa3fb300000000000000000000000000000000000000000000000000000000815260040160405180910390fd5b604051806060016040528085858080601f016020809104026020016040519081016040528093929190818152602001838380828437600081840152601f19601f82011690508083019250505050505050815260200183838080601f016020809104026020016040519081016040528093929190818152602001838380828437600081840152601f19601f8201169050808301925050505050505081526020013373ffffffffffffffffffffffffffffffffffffffff1681525060016000806000815461035990610831565b91905081905581526020019081526020016000206000820151816000019080519060200190610389929190610462565b5060208201518160010190805190602001906103a6929190610462565b5060408201518160020160006101000a81548173ffffffffffffffffffffffffffffffffffffffff021916908373ffffffffffffffffffffffffffffffffffffffff1602179055509050503373ffffffffffffffffffffffffffffffffffffffff1684846040516104189291906108b9565b60405180910390206000547ffb989e2578b4e995d8745b29f14d63846c3774f3fc6fea7aeaf60b8d2700227285856040516104549291906108ff565b60405180910390a450505050565b82805461046e906107d0565b90600052602060002090601f01602090048101928261049057600085556104d7565b82601f106104a957805160ff19168380011785556104d7565b828001600101855582156104d7579182015b828111156104d65782518255916020019190600101906104bb565b5b5090506104e491906104e8565b5090565b5b808211156105015760008160009055506001016104e9565b5090565b6000819050919050565b61051881610505565b82525050565b6000602082019050610533600083018461050f565b92915050565b600080fd5b600080fd5b61054c81610505565b811461055757600080fd5b50565b60008135905061056981610543565b92915050565b60006020828403121561058557610584610539565b5b60006105938482850161055a565b91505092915050565b600081519050919050565b600082825260208201905092915050565b60005b838110156105d65780820151818401526020810190506105bb565b838111156105e5576000848401525b50505050565b6000601f19601f8301169050919050565b60006106078261059c565b61061181856105a7565b93506106218185602086016105b8565b61062a816105eb565b840191505092915050565b600073ffffffffffffffffffffffffffffffffffffffff82169050919050565b600061066082610635565b9050919050565b61067081610655565b82525050565b6000606082019050818103600083015261069081866105fc565b905081810360208301526106a481856105fc565b90506106b36040830184610667565b949350505050565b600080fd5b600080fd5b600080fd5b60008083601f8401126106e0576106df6106bb565b5b8235905067ffffffffffffffff8111156106fd576106fc6106c0565b5b602083019150836001820283011115610719576107186106c5565b5b9250929050565b6000806000806040858703121561073a57610739610539565b5b600085013567ffffffffffffffff8111156107585761075761053e565b5b610764878288016106ca565b9450945050602085013567ffffffffffffffff8111156107875761078661053e565b5b610793878288016106ca565b925092505092959194509250565b7f4e487b7100000000000000000000000000000000000000000000000000000000600052602260045260246000fd5b600060028204905060018216806107e857607f821691505b602082108114156107fc576107fb6107a1565b5b50919050565b7f4e487b7100000000000000000000000000000000000000000000000000000000600052601160045260246000fd5b600061083c82610505565b91507fffffffffffffffffffffffffffffffffffffffffffffffffffffffffffffffff82141561086f5761086e610802565b5b600182019050919050565b600081905092915050565b82818337600083830152505050565b60006108a0838561087a565b93506108ad838584610885565b82840190509392505050565b60006108c6828486610894565b91508190509392505050565b60006108de83856105a7565b93506108eb838584610885565b6108f4836105eb565b840190509392505050565b6000602082019050818103600083015261091a8184866108d2565b9050939250505056fea2646970667358221220ed72fae500b284c5e2a736cb83e2e0ef2fbed559eb3082c07248290ba3dcbb1764736f6c63430008090033",
  "linkReferences": {},
  "deployedLinkReferences": {}
}