{
  "_format": "hh-sol-artifact-1",
  "contractName": "ImageStorage",
  "sourceName": "contracts/ImageStorage.sol",
  "abi": [
    {
      "anonymous": false,
      "inputs": [
        {
          "indexed": true,
          "internalType": "uint256",
          "name": "imgID",
          "type": "uint256"
        },
        {
          "indexed": true,
          "internalType": "string",
          "name": "imgTitle",
          "type": "string"
        },
        {
          "indexed": false,
          "internalType": "string",
          "name": "imgHash",
          "type": "string"
        },
        {
          "indexed": true,
          "internalType": "address",
          "name": "imgAuthor",
          "type": "address"
        }
      ],
      "name": "ImageAdded",
      "type": "event"
    },
    {
      "inputs": [
        {
          "internalType": "string",
          "name": "_imgTitle",
          "type": "string"
        },
        {
          "internalType": "string",
          "name": "_imgHash",
          "type": "string"
        }
      ],
      "name": "addImage",
      "outputs": [],
      "stateMutability": "nonpayable",
      "type": "function"
    },
    {
      "inputs": [
        {
          "internalType": "uint256",
          "name": "",
          "type": "uint256"
        }
      ],
      "name": "images",
      "outputs": [
        {
          "internalType": "string",
          "name": "imgTitle",
          "type": "string"
        },
        {
          "internalType": "string",
          "name": "imgHash",
          "type": "string"
        },
        {
          "internalType": "address",
          "name": "imgAuthor",
          "type": "address"
        }
      ],
      "stateMutability": "view",
      "type": "function"
    },
    {
      "inputs": [],
      "name": "imgCounter",
      "outputs": [
        {
          "internalType": "uint256",
          "name": "",
          "type": "uint256"
        }
      ],
      "stateMutability": "view",
      "type": "function"
    }
  ],
  "bytecode": "0x60806040526000805534801561001457600080fd5b506108dd806100246000396000f3fe608060405234801561001057600080fd5b50600436106100415760003560e01c80632f05ce2b146100465780638485648214610064578063a6eecd1814610096575b600080fd5b61004e6100b2565b60405161005b91906104a2565b60405180910390f35b61007e600480360381019061007991906104f3565b6100b8565b60405161008d939291906105fa565b60405180910390f35b6100b060048036038101906100ab91906106a4565b610212565b005b60005481565b60016020528060005260406000206000915090508060000180546100db90610754565b80601f016020809104026020016040519081016040528092919081815260200182805461010790610754565b80156101545780601f1061012957610100808354040283529160200191610154565b820191906000526020600020905b81548152906001019060200180831161013757829003601f168201915b50505050509080600101805461016990610754565b80601f016020809104026020016040519081016040528092919081815260200182805461019590610754565b80156101e25780601f106101b7576101008083540402835291602001916101e2565b820191906000526020600020905b8154815290600101906020018083116101c557829003601f168201915b5050505050908060020160009054906101000a900473ffffffffffffffffffffffffffffffffffffffff16905083565b604051806060016040528085858080601f016020809104026020016040519081016040528093929190818152602001838380828437600081840152601f19601f82011690508083019250505050505050815260200183838080601f016020809104026020016040519081016040528093929190818152602001838380828437600081840152601f19601f8201169050808301925050505050505081526020013373ffffffffffffffffffffffffffffffffffffffff168152506001600080600081546102dd906107b5565b9190508190558152602001908152602001600020600082015181600001908051906020019061030d9291906103e6565b50602082015181600101908051906020019061032a9291906103e6565b5060408201518160020160006101000a81548173ffffffffffffffffffffffffffffffffffffffff021916908373ffffffffffffffffffffffffffffffffffffffff1602179055509050503373ffffffffffffffffffffffffffffffffffffffff16848460405161039c92919061083d565b60405180910390206000547ffb989e2578b4e995d8745b29f14d63846c3774f3fc6fea7aeaf60b8d2700227285856040516103d8929190610883565b60405180910390a450505050565b8280546103f290610754565b90600052602060002090601f016020900481019282610414576000855561045b565b82601f1061042d57805160ff191683800117855561045b565b8280016001018555821561045b579182015b8281111561045a57825182559160200191906001019061043f565b5b509050610468919061046c565b5090565b5b8082111561048557600081600090555060010161046d565b5090565b6000819050919050565b61049c81610489565b82525050565b60006020820190506104b76000830184610493565b92915050565b600080fd5b600080fd5b6104d081610489565b81146104db57600080fd5b50565b6000813590506104ed816104c7565b92915050565b600060208284031215610509576105086104bd565b5b6000610517848285016104de565b91505092915050565b600081519050919050565b600082825260208201905092915050565b60005b8381101561055a57808201518184015260208101905061053f565b83811115610569576000848401525b50505050565b6000601f19601f8301169050919050565b600061058b82610520565b610595818561052b565b93506105a581856020860161053c565b6105ae8161056f565b840191505092915050565b600073ffffffffffffffffffffffffffffffffffffffff82169050919050565b60006105e4826105b9565b9050919050565b6105f4816105d9565b82525050565b600060608201905081810360008301526106148186610580565b905081810360208301526106288185610580565b905061063760408301846105eb565b949350505050565b600080fd5b600080fd5b600080fd5b60008083601f8401126106645761066361063f565b5b8235905067ffffffffffffffff81111561068157610680610644565b5b60208301915083600182028301111561069d5761069c610649565b5b9250929050565b600080600080604085870312156106be576106bd6104bd565b5b600085013567ffffffffffffffff8111156106dc576106db6104c2565b5b6106e88782880161064e565b9450945050602085013567ffffffffffffffff81111561070b5761070a6104c2565b5b6107178782880161064e565b925092505092959194509250565b7f4e487b7100000000000000000000000000000000000000000000000000000000600052602260045260246000fd5b6000600282049050600182168061076c57607f821691505b602082108114156107805761077f610725565b5b50919050565b7f4e487b7100000000000000000000000000000000000000000000000000000000600052601160045260246000fd5b60006107c082610489565b91507fffffffffffffffffffffffffffffffffffffffffffffffffffffffffffffffff8214156107f3576107f2610786565b5b600182019050919050565b600081905092915050565b82818337600083830152505050565b600061082483856107fe565b9350610831838584610809565b82840190509392505050565b600061084a828486610818565b91508190509392505050565b6000610862838561052b565b935061086f838584610809565b6108788361056f565b840190509392505050565b6000602082019050818103600083015261089e818486610856565b9050939250505056fea264697066735822122083f0a8678af54cf91872109dae84a8ba053701fa13c2cabe302137857d13b63e64736f6c63430008090033",
  "linkReferences": {},
  "deployedLinkReferences": {}
}